{
  "_format": "hh-sol-artifact-1",
  "contractName": "Bank",
  "sourceName": "contracts/eventChallenge.sol",
  "abi": [
    {
      "anonymous": false,
      "inputs": [
        {
          "indexed": true,
          "internalType": "address",
          "name": "owner",
          "type": "address"
        },
        {
          "indexed": false,
          "internalType": "uint256",
          "name": "amount",
          "type": "uint256"
        }
      ],
      "name": "Deposit",
      "type": "event"
    },
    {
      "anonymous": false,
      "inputs": [
        {
          "indexed": true,
          "internalType": "address",
          "name": "from",
          "type": "address"
        },
        {
          "indexed": true,
          "internalType": "address",
          "name": "to",
          "type": "address"
        },
        {
          "indexed": false,
          "internalType": "uint256",
          "name": "amount",
          "type": "uint256"
        }
      ],
      "name": "Transfer",
      "type": "event"
    },
    {
      "anonymous": false,
      "inputs": [
        {
          "indexed": true,
          "internalType": "address",
          "name": "owner",
          "type": "address"
        },
        {
          "indexed": false,
          "internalType": "uint256",
          "name": "amount",
          "type": "uint256"
        }
      ],
      "name": "Withdraw",
      "type": "event"
    },
    {
      "inputs": [
        {
          "internalType": "address",
          "name": "_account",
          "type": "address"
        },
        {
          "internalType": "uint256",
          "name": "_number",
          "type": "uint256"
        }
      ],
      "name": "deposit",
      "outputs": [],
      "stateMutability": "payable",
      "type": "function"
    },
    {
      "inputs": [
        {
          "internalType": "address",
          "name": "_address",
          "type": "address"
        }
      ],
      "name": "getBalance",
      "outputs": [
        {
          "internalType": "uint256",
          "name": "",
          "type": "uint256"
        }
      ],
      "stateMutability": "view",
      "type": "function"
    },
    {
      "inputs": [
        {
          "internalType": "address",
          "name": "_from",
          "type": "address"
        },
        {
          "internalType": "address",
          "name": "_to",
          "type": "address"
        },
        {
          "internalType": "uint256",
          "name": "_number",
          "type": "uint256"
        }
      ],
      "name": "transfer",
      "outputs": [],
      "stateMutability": "payable",
      "type": "function"
    },
    {
      "inputs": [
        {
          "internalType": "address",
          "name": "_account",
          "type": "address"
        },
        {
          "internalType": "uint256",
          "name": "_number",
          "type": "uint256"
        }
      ],
      "name": "withdraw",
      "outputs": [],
      "stateMutability": "payable",
      "type": "function"
    }
  ],
  "bytecode": "0x608060405234801561001057600080fd5b506107e0806100206000396000f3fe60806040526004361061003f5760003560e01c806347e7ef2414610044578063beabacc814610060578063f3fef3a31461007c578063f8b2cb4f14610098575b600080fd5b61005e6004803603810190610059919061051a565b6100d5565b005b61007a6004803603810190610075919061055a565b61017c565b005b6100966004803603810190610091919061051a565b610311565b005b3480156100a457600080fd5b506100bf60048036038101906100ba91906105ad565b610439565b6040516100cc91906105e9565b60405180910390f35b806000808473ffffffffffffffffffffffffffffffffffffffff1673ffffffffffffffffffffffffffffffffffffffff16815260200190815260200160002060008282546101239190610633565b925050819055508173ffffffffffffffffffffffffffffffffffffffff167fe1fffcc4923d04b559f4d29a8bfc6cda04eb5b0d3c460751c2402c5c5cc9109c8260405161017091906105e9565b60405180910390a25050565b806000808573ffffffffffffffffffffffffffffffffffffffff1673ffffffffffffffffffffffffffffffffffffffff1681526020019081526020016000205410156101fd576040517f08c379a00000000000000000000000000000000000000000000000000000000081526004016101f4906106ea565b60405180910390fd5b806000808573ffffffffffffffffffffffffffffffffffffffff1673ffffffffffffffffffffffffffffffffffffffff168152602001908152602001600020600082825461024b919061070a565b92505081905550806000808473ffffffffffffffffffffffffffffffffffffffff1673ffffffffffffffffffffffffffffffffffffffff16815260200190815260200160002060008282546102a09190610633565b925050819055508173ffffffffffffffffffffffffffffffffffffffff168373ffffffffffffffffffffffffffffffffffffffff167fddf252ad1be2c89b69c2b068fc378daa952ba7f163c4a11628f55a4df523b3ef8360405161030491906105e9565b60405180910390a3505050565b60008060008473ffffffffffffffffffffffffffffffffffffffff1673ffffffffffffffffffffffffffffffffffffffff1681526020019081526020016000205411610392576040517f08c379a00000000000000000000000000000000000000000000000000000000081526004016103899061078a565b60405180910390fd5b806000808473ffffffffffffffffffffffffffffffffffffffff1673ffffffffffffffffffffffffffffffffffffffff16815260200190815260200160002060008282546103e0919061070a565b925050819055508173ffffffffffffffffffffffffffffffffffffffff167f884edad9ce6fa2440d8a54cc123490eb96d2768479d49ff9c7366125a94243648260405161042d91906105e9565b60405180910390a25050565b60008060008373ffffffffffffffffffffffffffffffffffffffff1673ffffffffffffffffffffffffffffffffffffffff168152602001908152602001600020549050919050565b600080fd5b600073ffffffffffffffffffffffffffffffffffffffff82169050919050565b60006104b182610486565b9050919050565b6104c1816104a6565b81146104cc57600080fd5b50565b6000813590506104de816104b8565b92915050565b6000819050919050565b6104f7816104e4565b811461050257600080fd5b50565b600081359050610514816104ee565b92915050565b6000806040838503121561053157610530610481565b5b600061053f858286016104cf565b925050602061055085828601610505565b9150509250929050565b60008060006060848603121561057357610572610481565b5b6000610581868287016104cf565b9350506020610592868287016104cf565b92505060406105a386828701610505565b9150509250925092565b6000602082840312156105c3576105c2610481565b5b60006105d1848285016104cf565b91505092915050565b6105e3816104e4565b82525050565b60006020820190506105fe60008301846105da565b92915050565b7f4e487b7100000000000000000000000000000000000000000000000000000000600052601160045260246000fd5b600061063e826104e4565b9150610649836104e4565b925082820190508082111561066157610660610604565b5b92915050565b600082825260208201905092915050565b7f596f7520646f206e6f74206861766520656e6f7567682066756e647320666f7260008201527f2074686973207472616e73616374696f6e000000000000000000000000000000602082015250565b60006106d4603183610667565b91506106df82610678565b604082019050919050565b60006020820190508181036000830152610703816106c7565b9050919050565b6000610715826104e4565b9150610720836104e4565b925082820390508181111561073857610737610604565b5b92915050565b7f596f752772652062726f6b652100000000000000000000000000000000000000600082015250565b6000610774600d83610667565b915061077f8261073e565b602082019050919050565b600060208201905081810360008301526107a381610767565b905091905056fea2646970667358221220266f4fb540d4d35e092742f9a31a051f7e74ffa59141bfdbe7db8c824cd9a9fc64736f6c63430008110033",
  "linkReferences": {},
  "deployedLinkReferences": {}
}